S0200000696E746572666163696E675F61737369676E6D656E745F312E7372656352
S11300000C942A000C943F000C943F000C943F0085
S11300100C943F000C943F000C943F000C943F0060
S11300200C943F000C943F000C943F000C943F0050
S11300300C943F000C943F000C943F000C943F0040
S11300400C943F000C943F000C943F000C943F0030
S11300500C943F0011241FBECFE5D8E0DEBFCDBF16
S113006010E0A0E6B0E0E0E6F1E002C005900D92F9
S1130070AC37B107D9F70E9441000C94AE000C9440
S11300800000CF93DF93CDB7DEB728970FB6F8946F
S1130090DEBF0FBECDBF8FEF81BB8FE084BBFE01FF
S11300A0319688E0DF011D928A95E9F705E010E0BA
S11300B028E630E060E670E089819A810A973CF096
S11300C01A8219828B819C8101969C838B838B81FC
S11300D09C8106973CF01C821B828D819E81019637
S11300E09E838D838D819E810A973CF01E821D82A2
S11300F08F819885019698878F838F81988506973D
S113010054F118861F8227C08081329685BBD7019F
S11301108D919D917D01880F991F88599F4FDC0116
S11301208C9182BB83E790E40197F1F700C0000053
S1130130E217F30749F7415051094115510529F0D8
S1130140FB01DE0111967D01DFCF89819A81019641
S11301509A838983B1CF402F512FF2CFF894FFCFE8
S11301600100020004000800C000F900A400B0006F
S10F0170990092008200F80080009000CA
S9030000FC
