:100000000C942A000C9434000C9434000C943400AA
:100010000C9434000C9434000C9434000C94340090
:100020000C9434000C9434000C9434000C94340080
:100030000C9434000C9434000C9434000C94340070
:100040000C9434000C9434000C9434000C94340060
:100050000C94340011241FBECFE5D8E0DEBFCDBF25
:100060000E9441000C944A000C94000080E487BB7D
:100070006E9A6D986B986A980895779BFECF8FB1B2
:1000800008958FEF84BB15BA0E9436000E943D0090
:0800900085BBFCCFF894FFCF03
:00000001FF
