S01300005075736820427574746F6E2E73726563D5
S11300000C942A000C9434000C9434000C943400A6
S11300100C9434000C9434000C9434000C9434008C
S11300200C9434000C9434000C9434000C9434007C
S11300300C9434000C9434000C9434000C9434006C
S11300400C9434000C9434000C9434000C9434005C
S11300500C94340011241FBECFE5D8E0DEBFCDBF21
S11300600E9436000C943F000C9400008FEF84BB78
S113007011BA809B02C0A898FCCFA89AFACFF89432
S1050080FFCFAC
S9030000FC
