:100000000C942A000C9434000C9434000C943400AA
:100010000C9434000C9434000C9434000C94340090
:100020000C9434000C9434000C9434000C94340080
:100030000C9434000C9434000C9434000C94340070
:100040000C9434000C9434000C9434000C94340060
:100050000C94340011241FBECFE5D8E0DEBFCDBF25
:100060000E9453000C945C000C94000083E389B957
:1000700010BC80B58F7B80BD80B58F7E80BD80B584
:100080008F7D80BD80B5877F80BD80B5826080BD5B
:1000900080B5846080BD5298549A539A08955F9BAE
:1000A000FECF8CB108958FEF87BB18BA0E9436003F
:0C00B0000E944F0088BBFCCFF894FFCFEB
:00000001FF
