:100000000C942A000C9434000C9434000C943400AA
:100010000C9434000C9434000C9434000C94340090
:100020000C9434000C9434000C9434000C94340080
:100030000C9434000C9434000C9434000C94340070
:100040000C9434000C9434000C9434000C94340060
:100050000C94340011241FBECFE5D8E0DEBFCDBF25
:100060000E9436000C948E000C940000BB9A83B75B
:10007000886083BF83B7806483BF83B7806283BF98
:1000800083B78F7E83BF83B7816083BF83B78D7F44
:1000900083BF83B7846083BF48E132E32FE79FEBE0
:1000A0008FEF1CBE5FEB67E279E05150604070401B
:1000B000E1F700C000004CBF5FEB67E279E0515010
:1000C00060407040E1F700C000003CBF5FEB67E2BA
:1000D00079E0515060407040E1F700C000002CBF53
:1000E0005FEB67E279E0515060407040E1F700C09B
:1000F00000009CBF5FEB67E279E0515060407040C8
:10010000E1F700C000008CBF5FEB67E279E051507F
:1001100060407040E1F700C00000C3CFF894FFCF0B
:00000001FF
