:100000000C942A000C943C000C943C000C943C0092
:100010000C943C000C943C000C943C000C943C0070
:100020000C943C000C943C000C943C000C943E005E
:100030000C943C000C943C000C943C000C943C0050
:100040000C943C000C943C000C943C000C943C0040
:100050000C943C0011241FBECFE5D8E0DEBFCDBF1D
:1000600020E0A0E6B0E001C01D92A236B207E1F7A1
:100070000E9467000C949E000C9400001F920F9247
:100080000FB60F9211248F939F9386E082BF8091C9
:1000900060009091610001968430910529F0909361
:1000A0006100809360000CC01092610010926000AB
:1000B00085B3893020F485B38F5F85BB01C015BA45
:1000C0009F918F910F900FBE0F901F9018958FEFFB
:1000D00084BB15BA8ABB1BBA8FB780688FBF89B73C
:1000E000816089BF83B7877F83BF83B78F7B83BFDF
:1000F00083B78F7E83BF83B78F7D83BF83B78160D4
:1001000083BF83B78D7F83BF83B7846083BF86E05F
:1001100082BF80E090E030E020E08BBB4FE35DE009
:1001200063E0415050406040E1F700C0000001969C
:100130008A30910594F3832F922FEFCFF894FFCF5D
:00000001FF
