:100000000C942A000C9447000C9447000C94470071
:100010000C9447000C9447000C9447000C94470044
:100020000C9447000C9447000C9447000C94470034
:100030000C9447000C9447000C9447000C94470024
:100040000C9447000C9447000C9447000C94470014
:100050000C94470011241FBECFE5D8E0DEBFCDBF12
:1000600010E0A0E6B0E0E6E2F7E002C005900D92F5
:10007000AE3BB107D9F720E0AEEBB0E001C01D9276
:10008000A93DB207E1F70E9457010C9491030C942B
:100090000000D0983098319A329A3D983E9A3F9A13
:1000A00087B1807F87B93C98379A0895369A08952A
:1000B000349BFECF34980E94560084B125B190E065
:1000C000922B08950E945800BC0180E090E00E94AD
:1000D00075022AE037ED43E250E40E94030320E07A
:1000E00030E048EC52E40E94030320E030EC4FE79C
:1000F00054E40E94DC010E944402CB01089580EF89
:1001000084BB8FEF85BB089583B38F7083BB8F3023
:10011000F9F480E090E041E050E070E060E005C07C
:100120008430910511F4872F962F9C012C5F3F4F4F
:10013000FA0102C0EE0FFF1F2A95E2F79F012095FA
:1001400025BB019623B32F7023BB2F3049F302C088
:1001500080E090E0019723B32F7023BB2B3071F028
:1001600018F4273071F004C02D3029F02E3061F0E2
:10017000E4E0F0E00BC0E1E0F0E008C0E2E0F0E035
:1001800005C0E3E0F0E002C0E0E0F0E0EE0FFF1FAA
:10019000EE0FFF1FE80FF91FE559FF4F808108950B
:1001A000CF92DF92EF92FF92CF93DF931092D20023
:1001B0006115710581059105C9F0C2EDD0E00F2EE2
:1001C000FAE0CF2ED12CE12CF12CF02DA7019601D5
:1001D0000E946603605D6A93622F732F842F952FB0
:1001E000611571058105910589F702C0C2EDD0E066
:1001F000CE01DF91CF91FF90EF90DF90CF900895E7
:10020000DB9889EF90E00197F1F700C00000DB9ADE
:1002100087EA91E60197F1F700C00000089582BBDC
:10022000DA98D99A0E9400010895CF93DF93EC01E8
:100230008881882331F021960E940F0189918111D4
:10024000FBCFDF91CF91089582BBDA98D9980E94B5
:100250000001089581B38FEF81BB82B312BA8AB3D4
:100260008E608ABBDB9A88E30E9424018CE00E94A6
:1002700024018EE00E942401089581E00E9424015F
:100280000895E62FF0E0E05AFF4F9081890F0E9419
:1002900024010895CF93DF93EC01862F642F0E94F1
:1002A0004101CE010E941501DF91CF9108950E9476
:1002B0005C010E94AA01FDCF0E9449000E942A0110
:1002C0000E947F00D49A0895CF93DF9340E060E0CE
:1002D0008BE790E00E944A0161E080E00E944101CA
:1002E000C0E0D0E00E948400FE01ED52FF4F808309
:1002F00087EA91E60197F1F700C000008AE20E94C8
:100300000F012196C630D10569F762E080E00E94B6
:10031000410163ED70E084E690E00E948803892B40
:1003200031F48EE890E00E94150181E010C081EA6E
:1003300090E00E9415019FED23E984E09150204058
:100340008040E1F700C000000E943D0180E0DF91A5
:10035000CF9108950E9464018823E1F3DC9A2FE78E
:100360008AE196E0215080409040E1F700C0000013
:10037000DC980E9484008A32E1F40E94560043E037
:1003800060E08FEA90E00E944A010E946200BC0196
:10039000882777FD8095982F0E94D0000E94150134
:1003A0002FE78AE196E0215080409040E1F700C0BD
:1003B00000000E943D0108950CD0EBC0E3D040F056
:1003C000DAD030F021F45F3F19F0CCC0511115C1E3
:1003D000CFC0F0D098F39923C9F35523B1F3951BFF
:1003E000550BBB27AA2762177307840738F09F5F56
:1003F0005F4F220F331F441FAA1FA9F333D00E2EC5
:100400003AF0E0E830D091505040E695001CCAF731
:1004100029D0FE2F27D0660F771F881FBB1F2617F6
:1004200037074807AB07B0E809F0BB0B802DBF01C9
:10043000FF2793585F4F2AF09E3F510568F092C006
:10044000DCC05F3FECF3983EDCF3869577956795CB
:10045000B795F7959F5FC9F7880F911D969587957A
:1004600097F90895E1E0660F771F881FBB1F621799
:1004700073078407BA0720F0621B730B840BBA0B57
:10048000EE1F88F7E095089504D06894B111B5C0C7
:10049000089598D088F09F5790F0B92F9927B751B9
:1004A000A0F0D1F0660F771F881F991F1AF0BA9538
:1004B000C9F712C0B13081F09FD0B1E008959CC05F
:1004C000672F782F8827B85F39F0B93FCCF386952E
:1004D00077956795B395D9F73EF49095809570958B
:1004E00061957F4F8F4F9F4F0895E89409C097FB08
:1004F0003EF490958095709561957F4F8F4F9F4FFB
:100500009923A9F0F92F96E9BB279395F69587953E
:1005100077956795B795F111F8CFFAF4BB0F11F401
:1005200060FF1BC06F5F7F4F8F4F9F4F16C08823A8
:1005300011F096E911C0772321F09EE8872F762FDE
:1005400005C0662371F096E8862F70E060E02AF01F
:100550009A95660F771F881FDAF7880F969587950B
:1005600097F9089597F99F6780E870E060E0089533
:100570009FEF80EC089500240A94161617061806BB
:100580000906089500240A94121613061406050697
:100590000895092E0394000C11F4882352F0BB0F28
:1005A00040F4BF2B11F460FF04C06F5F7F4F8F4F8B
:1005B0009F4F089557FD9058440F551F59F05F3FC6
:1005C00071F04795880F97FB991F61F09F3F79F075
:1005D00087950895121613061406551FF2CF4695F7
:1005E000F1DF08C0161617061806991FF1CF869579
:1005F0007105610508940895E894BB27662777275D
:10060000CB0197F908950BD0C4CFB5DF28F0BADF3E
:1006100018F0952309F0A6CFABCF1124EECFCADF97
:10062000A0F3959FD1F3950F50E0551F629FF00105
:10063000729FBB27F00DB11D639FAA27F00DB11D5E
:10064000AA1F649F6627B00DA11D661F829F2227E7
:10065000B00DA11D621F739FB00DA11D621F839F6E
:10066000A00D611D221F749F3327A00D611D231F44
:10067000849F600D211D822F762F6A2F11249F5792
:1006800050408AF0E1F088234AF0EE0FFF1FBB1FB5
:10069000661F771F881F91505040A9F79E3F510554
:1006A00070F060CFAACF5F3FECF3983EDCF3869505
:1006B00077956795B795F795E7959F5FC1F7FE2BFF
:1006C000880F911D9695879597F90895A1E21A2EA6
:1006D000AA1BBB1BFD010DC0AA1FBB1FEE1FFF1FE6
:1006E000A217B307E407F50720F0A21BB30BE40B36
:1006F000F50B661F771F881F991F1A9469F760957D
:100700007095809590959B01AC01BD01CF01089536
:10071000FB01DC018D91019080190110D9F3990B37
:060720000895F894FFCFDC
:1007260080C094D4323935303530003738392F34DB
:1007360035362A3132332D23303D2B506C656173AB
:10074600652C20656E7465722050494E3A00436FE1
:100756006E67726174756C6174696F6E73093A299C
:1007660000594F55204641494C4544093A28005402
:0E077600656D70657261747572653D200000DE
:00000001FF
