S014000065787465726E616C5F696E742E7372656303
S11300000C942A000C943E000C943C000C943C008C
S11300100C943C000C943C000C943C000C943C006C
S11300200C943C000C943C000C943C000C943C005C
S11300300C943C000C943C000C943C000C943C004C
S11300400C943C000C943C000C943C000C943C003C
S11300500C943C0011241FBECFE5D8E0DEBFCDBF19
S113006020E0A0E6B0E001C01D92A236B207E1F79D
S11300700E945E000C9485000C9400001F920F9265
S11300800FB60F9211248F939F93809160009091EB
S11300906100893091053CF401969093610080934E
S11300A060008BBB04C010926100109260009F91AD
S11300B08F910F900FBE0F901F9018958FEF84BBF8
S11300C08ABB15BA1BBA82BB8FB780688FBF8BB748
S11300D080648BBF85B7816085BF85B7826085BF2B
S11300E080E090E030E020E085BB4FE35DE063E03A
S11300F0415050406040E1F700C0000001968A3052
S1110100910594F3832F922FEFCFF894FFCF45
S9030000FC
