S00C0000554152542E73726563DC
S11300000C942A000C9434000C9434000C943400A6
S11300100C9434000C9434000C9434000C9434008C
S11300200C9434000C9434000C9434000C9434007C
S11300300C9434000C9434000C9434000C9434006C
S11300400C9434000C9434000C9434000C9434005C
S11300500C94340011241FBECFE5D8E0DEBFCDBF21
S11300600E9453000C946F000C94000083E389B940
S113007010BC80B58F7B80BD80B58F7E80BD80B580
S11300808F7D80BD80B5877F80BD80B5826080BD57
S113009080B5846080BD5298549A539A08955D9BAC
S11300A0FECF8CB908958FEF87BB18BA0E94360033
S11300B0C0E0D0E000E010E08C2F0E944F002FE958
S11300C086E891E0215080409040E1F700C00000B4
S11300D02196CA30D10584F3C02FD12FEDCFF894E7
S10500E0FFCF4C
S9030000FC
