S021000045787465726E616C20616E64207072696F7269747920494E542E73726563C0
S11300000C942A000C943E000C9463000C943C0065
S11300100C943C000C943C000C943C000C943C006C
S11300200C943C000C943C000C943C000C943C005C
S11300300C943C000C943C000C943C000C943C004C
S11300400C943C000C943C000C943C000C943C003C
S11300500C943C0011241FBECFE5D8E0DEBFCDBF19
S113006020E0A0E6B0E001C01D92A036B207E1F79F
S11300700E9486000C94B7000C9400001F920F920B
S11300800FB60F9211242F938F939F938FEF88BBFA
S11300902FE38DE093E0215080409040E1F700C0D1
S11300A0000018BA2FE38DE093E021508040904087
S11300B0E1F700C000009F918F912F910F900FBE28
S11300C00F901F9018951F920F920FB60F92112444
S11300D02F933F938F939F938FB780688FBF80E058
S11300E08BBB2FE738E391E0215030409040E1F79B
S11300F000C000008F5F8A3099F79F918F913F91E4
S11301002F910F900FBE0F901F9018958FEF84BB07
S11301108ABB87BB15BA1BBA82BB8FB780688FBFF7
S11301208BB780648BBF8BB780688BBF85B78160CA
S113013085BF85B7826085BF85B7846085BF85B775
S1130140886085BF80E090E030E020E085BB4FE729
S113015058E361E0415050406040E1F700C00000C6
S113016001968A30910594F3832F922FEFCFF89460
S1050170FFCFBB
S9030000FC
