:100000000C942A000C9447000C9447000C94470071
:100010000C9447000C9447000C9447000C94470044
:100020000C9447000C9447000C9447000C94470034
:100030000C9447000C9447000C9447000C94470024
:100040000C9447000C9447000C9447000C94470014
:100050000C94470011241FBECFE5D8E0DEBFCDBF12
:1000600010E0A0E6B0E0E4EDF1E002C005900D92F2
:10007000AA36B107D9F720E0AAE6B0E001C01D9288
:10008000AA36B207E1F70E94D7000C94E8000C945E
:10009000000080EF81BB8FEF82BB0895949860B31E
:1000A0006F7060BB6F3009F47BC012C062B39A01FD
:1000B000082E02C0220F331F0A94E2F7E22FE095C8
:1000C0006E2362BB60B36F7060BB6F3041F001C0E4
:1000D00070E080B38F7080BB8F30D9F709C032B326
:1000E000232B22BB7F5F0196743001F78FEF0895B9
:1000F000743009F449C07130C1F028F0723039F120
:100100007330B9F143C06B3061F018F4673059F0C7
:1001100004C06D3021F06E30D9F18FEF089584E086
:10012000089581E0089584E608956B3061F018F435
:10013000673059F004C06D3021F06E3059F18FEF07
:10014000089585E0089582E0089580E008956B3079
:1001500061F018F4673059F004C06D3021F06E3052
:10016000D9F08FEF089586E0089583E0089584E63E
:1001700008956B3099F018F4673081F003C06D502A
:10018000623060F08FEF08958FEF08958FEF08953C
:1001900087E0089588E0089589E0089584E6089549
:1001A000949A85E090E071E041E050E07FCF8FEFDE
:1001B00084BB15BA15BA0E9449000E944E008A30CD
:1001C000E0F7E82FF0E0E05AFF4F808185BBF5CFE4
:0401D000F894FFCFD1
:0A01D40000010203040506070809F4
:00000001FF
