S00B00004144432E7372656351
S11300000C942A000C9434000C9434000C943400A6
S11300100C9434000C9434000C9434000C9434008C
S11300200C9434000C9434000C9434000C9434007C
S11300300C9434000C9434000C9434000C9434006C
S11300400C9434000C9434000C9434000C9434005C
S11300500C94340011241FBECFE5D8E0DEBFCDBF21
S11300600E9436000C94F7010C9400008FEF84BBBF
S113007015BA379A329A319A30983D9A3F983E98F9
S11300803B983A9839983898369A349BFECF84B185
S113009065B170E0660F771F660F771F82958695AE
S11300A086958370682B80E090E00E94DE0020E05B
S11300B030E040EA50E40E94700120E030EC4FE769
S11300C054E40E94760020E030E048EC52E40E94C0
S11300D0700120E030E048EC51E40E946C01882378
S11300E014F0A89A01C0A898369ACFCF0CD0BAC001
S11300F0B2D040F0A9D030F021F45F3F19F09BC09A
S11301005111E4C09EC0BFD098F39923C9F355237D
S1130110B1F3951B550BBB27AA27621773078407F6
S113012038F09F5F5F4F220F331F441FAA1FA9F3AC
S113013033D00E2E3AF0E0E830D091505040E6959E
S1130140001CCAF729D0FE2F27D0660F771F881FFF
S1130150BB1F261737074807AB07B0E809F0BB0BEE
S1130160802DBF01FF2793585F4F2AF09E3F510512
S113017068F061C0ABC05F3FECF3983EDCF386955A
S113018077956795B795F7959F5FC9F7880F911D88
S11301909695879597F90895E1E0660F771F881F74
S11301A0BB1F621773078407BA0720F0621B730B27
S11301B0840BBA0BEE1F88F7E0950895E89409C004
S11301C097FB3EF490958095709561957F4F8F4F86
S11301D09F4F9923A9F0F92F96E9BB279395F6959C
S11301E0879577956795B795F111F8CFFAF4BB0F1A
S11301F011F460FF1BC06F5F7F4F8F4F9F4F16C07E
S1130200882311F096E911C0772321F09EE8872F07
S1130210762F05C0662371F096E8862F70E060E0C3
S11302202AF09A95660F771F881FDAF7880F96953C
S1130230879597F9089597F99F6780E870E060E0E3
S113024008959FEF80EC089500240A94161617066B
S113025018060906089500240A94121613061406B3
S113026005060895092E0394000C11F4882352F016
S1130270BB0F40F4BF2B11F460FF04C06F5F7F4FCE
S11302808F4F9F4F089557FD9058440F551F59F0B5
S11302905F3F71F04795880F97FB991F61F09F3F6F
S11302A079F087950895121613061406551FF2CF98
S11302B04695F1DF08C0161617061806991FF1CFE8
S11302C086957105610508940895E894BB2766270F
S11302D07727CB0197F9089566D008F48FEF089536
S11302E00BD0C0CFB1DF28F0B6DF18F0952309F0AA
S11302F0A2CFA7CF1124EACFC6DFA0F3959FD1F3F5
S1130300950F50E0551F629FF001729FBB27F00DBF
S1130310B11D639FAA27F00DB11DAA1F649F662714
S1130320B00DA11D661F829F2227B00DA11D621F63
S1130330739FB00DA11D621F839FA00D611D221F1D
S1130340749F3327A00D611D231F849F600D211D01
S1130350822F762F6A2F11249F5750408AF0E1F0A4
S113036088234AF0EE0FFF1FBB1F661F771F881FED
S113037091505040A9F79E3F510570F05CCFA6CF35
S11303805F3FECF3983EDCF3869577956795B795D8
S1130390F795E7959F5FC1F7FE2B880F911D969502
S11303A0879597F90895990F0008550FAA0BE0E86F
S11303B0FEEF16161706E807F907C0F01216130623
S11303C0E407F50798F0621B730B840B950B39F463
S11303D00A2661F0232B242B252B21F408950A26C9
S11303E009F4A140A6958FEF811D811D0895F8940D
S10503F0FFCF39
S9030000FC
