:100000000C942A000C943F000C943F000C943F0089
:100010000C943F000C943F000C943F000C943F0064
:100020000C943F000C943F000C943F000C943F0054
:100030000C943F000C943F000C943F000C943F0044
:100040000C943F000C943F000C943F000C943F0034
:100050000C943F0011241FBECFE5D8E0DEBFCDBF1A
:1000600010E0A0E6B0E0E4EFF0E002C005900D92F1
:10007000A437B107D9F70E9441000C9478000C9482
:1000800000008FEF84BB8EE781BB81E882BB80ECF0
:1000900085BB80E090E070E060E008C09C012A3001
:1000A000310514F4C90102C0872F962F40B3E7EA47
:1000B000F1E63197F1F700C0000020B330E0209561
:1000C000309520FD0AC020B3407850E030E0209504
:1000D000309524233523232B09F39C012F5F3F4FB9
:1000E000FC01EE0FFF1FE05AFF4F808185BBD7CF89
:0400F000F894FFCFB2
:1000F400C000F900A400B000990092008200F8004A
:0401040080009000E7
:00000001FF
