S01400006C65645F6261747465726E732E7372656319
S11300000C942A000C9434000C9434000C943400A6
S11300100C9434000C9434000C9434000C9434008C
S11300200C9434000C9434000C9434000C9434007C
S11300300C9434000C9434000C9434000C9434006C
S11300400C9434000C9434000C9434000C9434005C
S11300500C94340011241FBECFE5D8E0DEBFCDBF21
S11300600E9436000C94BA000C9400008FEF84BBFD
S113007015BAC0E0B0E021E030E0A7E0F0E078E0BD
S113008060E0EFEF15BA4FE55AEE80E04150504082
S11300908040E1F700C000008C2F9B2FA901082E9F
S11300A002C0440F551F0A94E2F745BBDFE54AEE50
S11300B050E0D15040405040E1F700C000000196AC
S11300C08830910559F715BA8FE59AEED0E0815042
S11300D09040D040E1F700C000008A2F9F2FA90173
S11300E0082E02C0440F551F0A94E2F745BB4FE5A2
S11300F05AEED0E041505040D040E1F700C000003B
S1130100019768F715BA5FE58AEE90E05150804098
S11301109040E1F700C00000872F962F45B3440FAD
S11301204F5F45BBDFE54AEE50E0D15040405040C0
S1130130E1F700C000000197009781F7E5BB8FE568
S11301409AEED0E081509040D040E1F700C000002A
S1130150872F962F45B3469545BB4FE55AEED0E021
S113016041505040D040E1F700C000000197009793
S10B017089F788CFF894FFCF52
S9030000FC
