:100000000C942A000C9434000C9434000C943400AA
:100010000C9434000C9434000C9434000C94340090
:100020000C9434000C9434000C9434000C94340080
:100030000C9434000C9434000C9434000C94340070
:100040000C9434000C9434000C9434000C94340060
:100050000C94340011241FBECFE5D8E0DEBFCDBF25
:100060000E9436000C947F000C9400008FEF84BB3C
:100070008ABB11BA20E030E040E050E080E090E040
:1000800061E070E0B0E0A0E006C09B014B2F5A2F6A
:1000900002C02B2F3A2F809918C0FB01082E02C0F6
:1000A000EE0FFF1F0A94E2F7E5BB8430910514F4CC
:1000B000019602C08B2F9A2FCFE3EDE0F3E0C15001
:1000C000E040F040E1F700C00000819912C0211526
:1000D000310579F49B01042E02C0220F331F0A94CC
:1000E000E2F72BBB4430510584F64F5F5F4F9B0115
:1000F000D2CF819BD0CF2130310569F6CACFF89499
:02010000FFCF2F
:00000001FF
